:060000000A128A11FC2F18
:100B6800F001F00A1A300A128A114A260A128A116A
:100B7800F00118300A128A114A260A128A111A300C
:100B88000A128A11D7250A128A11F5007508F6008B
:100B98007608F5007508F00018300A128A11232724
:100BA8000A128A11C32DF400F3017408F00003300F
:100BB8000310F00CFF3E031DDC2D7008F1007108D6
:100BC800F20074080739F0007008F400372E01307D
:100BD800F000740AF12D0310F00DFF3E031DEF2DF8
:100BE8007008831203130505302E0130F000740AD3
:100BF800FF2D0310F00DFF3E031DFD2D700883121D
:100C080003130605302E0130F000740A0D2E031070
:100C1800F00DFF3E031D0B2E70088312031307050A
:100C2800302E0130F000740A1B2E0310F00DFF3E29
:100C3800031D192E7008831203130805302E013086
:100C4800F000740A292E0310F00DFF3E031D272E15
:100C580070088312031309050030031D0130F100E9
:100C68007108F300482E7208003A0319EB2D013A77
:100C78000319F92D033A0319072E013A0319152E02
:100C8800073A0319232E482E73080800F400740845
:100C9800F10003300310F10CFF3E031D4E2E7108C6
:100CA800F2007208F30074080739F1007108F400C3
:100CB800112F70080319702E0130F100740A662E86
:100CC8000310F10DFF3E031D642E7108F200720837
:100CD80083160313850408000130F100740A762E88
:100CE8000310F10DFF3E031D742E7108FF3AF20048
:100CF8007208831603138505080070080319942EDB
:100D08000130F100740A8A2E0310F10DFF3E031D15
:100D1800882E7108F20072088316031386040800EF
:100D28000130F100740A9A2E0310F10DFF3E031DE5
:100D3800982E7108FF3AF20072088316031386058D
:100D4800080070080319B82E0130F100740AAE2E9D
:100D58000310F10DFF3E031DAC2E7108F20072085E
:100D680083160313870408000130F100740ABE2EAD
:100D78000310F10DFF3E031DBC2E7108FF3AF2006F
:100D88007208831603138705080070080319DC2E00
:100D98000130F100740AD22E0310F10DFF3E031D3D
:100DA800D02E7108F2007208831603138804080015
:100DB8000130F100740AE22E0310F10DFF3E031D0D
:100DC800E02E7108FF3AF2007208831603138805B3
:100DD800080070080319002F0130F100740AF62E7C
:100DE8000310F10DFF3E031DF42E7108F200720886
:100DF80083160313890408000130F100740A062FD2
:100E08000310F10DFF3E031D042F7108FF3AF20095
:100E1800720883160313890508007308003A03193A
:100E28005D2E013A0319812E033A0319A52E013AC2
:100E38000319C92E073A0319ED2E222F0800F400D2
:100E48007408F10003300310F10CFF3E031D272F37
:100E58007108F2007208F30074080739F10071088C
:100E6800F400EA2F70080319492F0130F100740AC1
:100E78003F2F0310F10DFF3E031D3D2F7108F200B7
:100E8800720883120313850408000130F100740A04
:100E98004F2F0310F10DFF3E031D4D2F7108FF3A30
:100EA800F2007208831203138505080070080319FD
:100EB8006D2F0130F100740A632F0310F10DFF3E0E
:100EC800031D612F7108F200720883120313860450
:100ED80008000130F100740A732F0310F10DFF3E72
:100EE800031D712F7108FF3AF20072088312031371
:100EF8008605080070080319912F0130F100740A63
:100F0800872F0310F10DFF3E031D852F7108F20096
:100F1800720883120313870408000130F100740A71
:100F2800972F0310F10DFF3E031D952F7108FF3A0F
:100F3800F20072088312031387050800700803196A
:100F4800B52F0130F100740AAB2F0310F10DFF3EED
:100F5800031DA92F7108F200720883120313880475
:100F680008000130F100740ABB2F0310F10DFF3E99
:100F7800031DB92F7108FF3AF20072088312031398
:100F88008805080070080319D92F0130F100740A88
:100F9800CF2F0310F10DFF3E031DCD2F7108F20076
:100FA800720883120313890408000130F100740ADF
:100FB800DF2F0310F10DFF3E031DDD2F7108FF3AEF
:100FC800F200720883120313890508007308003AB7
:100FD8000319362F013A03195A2F033A03197E2FA2
:100FE800013A0319A22F073A0319C62FFB2F08004D
:080FF80083010A128A11B42DD5
:02400E00BAFFF7
:00000001FF
