:060000000A128A11122809
:10000800FE00030EF4000408F5000A08F600831247
:1000180003137F08F7000A128A11332B0A128A1178
:100028001528F801F901FA01FB01FC01EB01EC01CB
:10003800ED01EE0183160313A001A101A201A301A2
:10004800A401A50183010A128A11972C83120313B4
:10005800D8005130D5005508E8005808D500550893
:10006800E500650884000A128A1104250A128A111B
:10007800003A03190800650884000A128A11042549
:100088000A128A11D5005508E60025306606031DB8
:10009800322A0130D5005508E507650884000A12A0
:1000A8008A1104250A128A11D5005508E600303055
:1000B8006602031C8C283A30660203188C28E70174
:1000C80030306602031C002A3A3066020318002A00
:1000D8000A30D5005508AE0067080A128A11332580
:1000E8000A128A11831203136607D03ED6005608F7
:1000F800E7000130D5005508E507650884000A12B5
:100108008A1104250A128A11D5005508E6006428C8
:10011800FF30D5005508E700002A680884008313DB
:100128000008D5005508E6000230D5005508E80754
:10013800322A831203136808840083130008DD0041
:10014800840A0008DE000230D5005508E807DE1FE3
:10015800B828DD09DE09DD0A0319DE0A2D300A1286
:100168008A1146250A128A11831203135D08B20008
:100178005E08B3000030B31BFF30B400B500670859
:10018800D5005508B6000A300A128A113F220A1211
:100198008A11382A8312031368088400831300081D
:1001A800D900840A0008DA00840A0008DB00840AFF
:1001B8000008DC000430D5005508E807DC1FF528E6
:1001C800D909DA09DB09DC09D90A0319DA0A03199A
:1001D800DB0A0319DC0A2D300A128A1146250A1295
:1001E8008A11831203135C08B5005B08B4005A082F
:1001F800B3005908B2006708D5005508B6000A30A0
:100208000A128A113F220A128A11382A831203130A
:100218006808840083130008E300840A0008E400E7
:100228000230D5005508E8076308B2006408B30037
:10023800B401B5016708D5005508B6000A300A129E
:100248008A113F220A128A11382A83120313680876
:10025800840083130008DF00840A0008E000840A91
:100268000008E100840A0008E2000430D5005508BF
:10027800E8076208B5006108B4006008B3005F08C9
:10028800B2006708D5005508B6000A300A128A116C
:100298003F220A128A11382A83120313680884003D
:1002A80083130008E300840A0008E4000230D50044
:1002B8005508E8076308B2006408B300B401B50143
:1002C8006708D5005508B60010300A128A113F2277
:1002D8000A128A11382A83120313680884008313C8
:1002E8000008DF00840A0008E000840A0008E10032
:1002F800840A0008E2000430D5005508E8076208BF
:10030800B5006108B4006008B3005F08B200670870
:10031800D5005508B60010300A128A113F220A1279
:100328008A11382A8312031368088400831300088B
:10033800E300840A0008E4000230D5005508E80705
:10034800670A031DAB291030D5005508E70063087C
:10035800B2006408B300B401B5016708D5005508B8
:10036800B60002300A128A113F220A128A11382A6C
:10037800831203136808840083130008DF00840ACB
:100388000008E000840A0008E100840A0008E2008E
:100398000430D5005508E807670A031DD72920301F
:1003A800D5005508E7006208B5006108B400600888
:1003B800B3005F08B2006708D5005508B6000230E0
:1003C8000A128A113F220A128A11382A8312031349
:1003D8006808840083130008D5005508D700013049
:1003E800D5005508E80757080A128A11E4240A12AA
:1003F8008A11382A2530332A831203136608253ACE
:100408000319FE29673A0319BC29013A03199128EF
:10041800073A0319CE28023A0319382A153A03195C
:10042800EA29063A031929290D3A03196F293A3A94
:1004380003199629013A03199128073A03199D28A7
:10044800023A0319382A153A0319EA29063A031910
:100458000A290D3A03195029382A382A66080A1237
:100468008A1146250A128A11013083120313D50016
:100478005508E507352883120313CF00D001023051
:100488004F060319862A8A2A3208B7003308B800AB
:100498003408B9003508BA003608FF3EBB00BB0A6D
:1004A8000130BC000030BD005C2A0310BC0DBD0D3E
:1004B800BB0B592A3C08BE003D08BF000030BF1BDB
:1004C800FF30C000C1003E08B7053F08B805400826
:1004D800B9054108BA053A0839043804370403193C
:1004E800772A0130782A0030C2004208D00050082C
:1004F800303E0A128A1146250A128A1101308312E7
:100508000313B602360803190800482A35083404CC
:1005180033043204031D952A30300A128A11462505
:10052800080083120313D0013608500203182F2B3A
:1005380035083404330432040319F92A4F08B70084
:100548003708AE003508A7003408A6003308A50010
:100558003208A4004F08B800B901BA01BB013B0832
:10056800A3003A08A2003908A1003808A0000A121E
:100578008A11DE230A128A118312031320080A1231
:100588008A1133250A128A11FF3A013E8312031396
:100598003207BC005008433E84003C0883138000A7
:1005A8004F08B700B801B901BA013A08A3003908E1
:1005B800A2003808A1003708A0003508A7003408B1
:1005C800A6003308A5003208A4000A128A11DE2307
:1005D8000A128A11831203132308B5002208B400F3
:1005E8002108B3002008B200052B360A03192F2B67
:1005F8000B30360203182F2B5008433E8400831318
:1006080080010130B7003708D007982A5008FF3E0C
:10061800433E84000A308313000203181A2B500843
:10062800FF3E433E84000008303E202B5008FF3E2A
:10063800433E84000008373ECD00003003180130E7
:10064800CE004D080A128A1146250A128A11013075
:1006580083120313D0025008031908000A2B0B1D3C
:10066800412B32307C0203183D2B0130F00070081A
:10067800FC070B11EC308100D12B8B1CD12B8B107C
:100688007C08F000F1017008FA007108FB00FC0119
:10069800EC3081000130F8070318F90A0030F90737
:1006A80000307B02323003197A02031C6A2BFE30B9
:1006B800F800FF30F900003083160313A300003060
:1006C800A2000030A1000030A000D12BF91B9E2B06
:1006D8007908803AFF0080307F02031D752B203097
:1006E800780203189E2B00307B02023003197A022D
:1006F800031CD12B0130F0000030F1000030F20073
:100708000030F3007803FF3A1F3E013E902B0310A0
:10071800F00DF10DF20DF30DFF3E031D8B2B70084C
:1007280083160313A0047108A1047208A2047308B5
:10073800A304D12B7908803AFF0080307F02031D83
:10074800A72B20307802031CD12B83160313230810
:1007580083120313EE008316031322088312031374
:10076800ED0083160313210883120313EC0083168C
:100778000313200883120313EB00003083160313BE
:10078800A3000030A2000030A1000030A000F80152
:10079800F9010130A4000030A50077088312031383
:1007A800FF0076088A0075088400740E8300FE0E28
:1007B8007E0E0900003083120313AC000030AB003A
:1007C8000030AA000030A9002308220421042004D4
:1007D8000319352CAD01AD0AA31B002C0130A8006C
:1007E8000310A00DA10DA20DA30DA80BF42B013031
:1007F800A8002808AD07F02B0130A8000310A90DA8
:10080800AA0DAB0DAC0DA80B022C23082702031D63
:10081800172C22082602031D172C21082502031D68
:10082800172C20082402031C282C2008A4022108C5
:10083800031C210FA5022208031C220FA60223086D
:10084800031C230FA702291401300310A30CA20CC8
:10085800A10CA00CFF3E031D292C0130AD02031D85
:10086800002C2C08A3002B08A2002A08A1002908A4
:10087800A0000800831203133108031D502C300810
:10088800031D502C09302F02031D4E2C60302E0200
:10089800031D4E2C031C8E2C3108031D8E2C013099
:1008A8003002031D5F2CC2302F02031D5F2C013064
:1008B8002E02031D5F2C03188E2C2E08B2002F0861
:1008C800B3003008B4003108B50006300310B20D8B
:1008D800B30DB40DB50DFF3E031D6A2C3508A300FA
:1008E8003408A2003308A1003208A0000130A70094
:1008F8003130A6002D30A5000030A4000A128A115C
:10090800DE230A128A11831203132008FF3EB60061
:100918003608912C1F30B2003208B700370883160A
:1009280003139900080083120313E901EA01013057
:1009380083160313860001308312031386000030E8
:10094800BB000030BA002530B9008030B8000A1268
:100958008A111D250A128A11073083160313810094
:10096800EC308312031381008B160B168B170B17B1
:10097800101401300A128A11E4240A128A1183120F
:1009880003136E086D046C046B040319C32C6E0802
:10099800D4006D08D3006C08D2006B08D1000B306E
:1009A8000A128A112A200A128A11003083120313AC
:1009B800EE000030ED000030EC000030EB00C32CFE
:1009C80083120313A200220884000A128A11042544
:1009D8000A128A11003A03190800220884000A1230
:1009E8008A1104250A128A110A128A1146250A1246
:1009F8008A11013083120313A1002108A207E72CF2
:100A080005308A000408840A8207003449346E34A9
:100A180069347434203444346F346E3465340034AB
:100A28000A340D34763461346C343A34253458340D
:100A380000348030831603138700203098009030EC
:100A48008312031398003B08B1003A08B000390834
:100A5800AF003808AE000A128A113E24080083123B
:100A68000313B100B001311C3D2D2E08AF002F0833
:100A7800B0070310AE0D0310B10C3108031D372D5C
:100A88003008080083120313A0000C1E492D0C1215
:060A98002008990008008F
:02400E00BA3FB7
:00000001FF
