:100000000A128A11FC2F00308A000408840A820731
:100010000034573465346C3463346F346D34653474
:10002000203474346F342034503449344334203411
:10003000533465347234693461346C342034503450
:1000400072346F346734723461346D346D346934B2
:100050006E34673420346234793420344534783453
:1000600070346C346F347234653445346D346234BA
:10007000653464346434653464340A340D340034D3
:1007D600F000831203130C1EEC2B0C127008990008
:1007E600080083120313A300A201231CFE2B20087A
:1007F600A1002108A2070310A00D0310A30CA30853
:10080600031DF82B22080800F200720884008313E7
:1008160080080319080072088400831300080A126E
:100826008A11EB230A128A110130F1007108F207CE
:10083600082C8030831603138700203098009030F0
:100846008312031398002D08A3002C08A2002B087E
:10085600A1002A08A0000A128A11482408000030C4
:1008660083120313AD000030AC002530AB0080309E
:10087600AA000A128A111C240A128A1101300A12CD
:100886008A11EF250A128A11412C003083120313B4
:100896002302031D582C00302202031D582C093058
:1008A6002102031D582C60302002031C972C0030B7
:1008B6002302031D682C01302202031D682CC2305E
:1008C6002102031D682C013020020318972C2008F2
:1008D600A4002108A5002208A6002308A7000630C8
:1008E6000310A40DA50DA60DA70DFF3E031D732C29
:1008F6002708F3002608F2002508F1002408F00076
:100906000130F7003130F6002D30F5000030F400EC
:100916000A128A11A0240A128A117008FF3E831255
:100926000313A80028089A2C1F30A4002408A90045
:10093600290883160313990008000030FC000030D4
:10094600FB000030FA000030F900730872047104ED
:1009560070040319F52CFD01FD0AF31BC02C0130B0
:10096600F8000310F00DF10DF20DF30DF80BB42C99
:100976000130F8007808FD07B02C0130F8000310AC
:10098600F90DFA0DFB0DFC0DF80BC22C730877025E
:10099600031DD72C72087602031DD72C7108750229
:1009A600031DD72C70087402031CE82C7008F4028F
:1009B6007108031C710FF5027208031C720FF60210
:1009C6007308031C730FF702791401300310F30C3C
:1009D600F20CF10CF00CFF3E031DE92C0130FD0278
:1009E600031DC02C7C08F3007B08F2007A08F10096
:1009F6007908F000080083120313C100C201410800
:100A0600023A0319432D472D2408A9002508AA00F8
:100A16002608AB002708AC002808FF3EAD00AD0A4B
:100A26000130AE000030AF001B2D0310AE0DAF0D30
:100A3600AD0B182D2E08B0002F08B1000030B11BE9
:100A4600FF30B200B3003008A9053108AA05320804
:100A5600AB053308AC052C082B042A042904003006
:100A6600031D0130B4003408C2004208303E0A12A9
:100A76008A11EB230A128A11013083120313A8028A
:100A8600A80803190800072D2708260425042404AE
:100A9600031D522D30300A128A11EB2308008312EF
:100AA6000313C201280842020318EB2D2708260467
:100AB600250424040319B42D4108A9002908A0001F
:100AC6002708F7002608F6002508F5002408F40094
:100AD6004108AA00AB01AC01AD012D08F3002C08BA
:100AE600F2002B08F1002A08F0000A128A11A0244D
:100AF6000A128A1170080A128A11F4230A128A113C
:100B0600FF3A013E831203132407AE004208353E26
:100B160084002E08831380004108A900AA01AB01B6
:100B2600AC012C08F3002B08F2002A08F100290872
:100B3600F0002708F7002608F6002508F500240827
:100B4600F4000A128A11A0240A128A117308831269
:100B56000313A7007208A6007108A5007008A40078
:100B6600C12D2808FF3A0319EB2D0B302802031874
:100B7600EB2D4208353E8400831380010130A90025
:100B86002908C207552D4208FF3E353E84000A302B
:100B9600831300020318D62D4208FF3E353E84001B
:100BA6000008303EDC2D4208FF3E353E840000083A
:100BB600373EBF00003003180130C0003F080A125C
:100BC6008A11EB230A128A11013083120313C2021F
:100BD600C20803190800C62D83120313C60070301D
:100BE600C3004308D6004608C3004308D300530891
:100BF60084000A128A1103200A128A110038031986
:100C06000800530884000A128A1103200A128A1166
:100C1600C3004308D4005408253A031DEF2F0130C2
:100C2600C3004308D307530884000A128A1103201D
:100C36000A128A11C3004308D40030305402031C40
:100C4600512E3A3054020318512ED5013030540239
:100C5600031CBD2F3A3054020318BD2F0A30C300BF
:100C66004308A00055080A128A11F4230A128A11B1
:100C7600831203135407D03EC4004408D500013044
:100C8600C3004308D307530884000A128A110320BD
:100C96000A128A11C3004308D400292EFF30C3006C
:100CA6004308D500BD2F560884000008C30043083A
:100CB600D4000230C3004308D607EF2F8312031374
:100CC600560884000008CB00840A0008CC000230D5
:100CD600C3004308D607CC1F7B2ECB09CC09CB0A11
:100CE6000319CC0A2D300A128A11EB230A128A1133
:100CF600831203134B08A4004C08A5000030A51B63
:100D0600FF30A600A7005508C3004308A8000A3014
:100D16000A128A11FE240A128A11F52F831203136E
:100D2600560884000008C700840A0008C800840A20
:100D36000008C900840A0008CA000430C30043083A
:100D4600D607CA1FB72EC709C809C909CA09C70ADB
:100D56000319C80A0319C90A0319CA0A2D300A1247
:100D66008A11EB230A128A11831203134A08A70079
:100D76004908A6004808A5004708A4005508C3006E
:100D86004308A8000A300A128A11FE240A128A11A0
:100D9600F52F83120313560884000008D100840A35
:100DA6000008D2000230C3004308D6075108A40049
:100DB6005208A500A601A7015508C3004308A800CC
:100DC6000A300A128A11FE240A128A11F52F83129A
:100DD6000313560884000008CD00840A0008CE00DC
:100DE600840A0008CF00840A0008D0000430C3003B
:100DF6004308D6075008A7004F08A6004E08A500CE
:100E06004D08A4005508C3004308A8000A300A127A
:100E16008A11FE240A128A11F52F8312031356082B
:100E260084000008D100840A0008D2000230C30002
:100E36004308D6075108A4005208A500A601A70139
:100E46005508C3004308A80010300A128A11FE2470
:100E56000A128A11F52F831203135608840000081C
:100E6600CD00840A0008CE00840A0008CF00840A58
:100E76000008D0000430C3004308D6075008A70076
:100E86004F08A6004E08A5004D08A4005508C3004B
:100E96004308A80010300A128A11FE240A128A1189
:100EA600F52F83120313560884000008D100840A24
:100EB6000008D2000230C3004308D6075508FF3A9F
:100EC600031D692F1030C3004308D5005108A40044
:100ED6005208A500A601A7015508C3004308A800AB
:100EE60002300A128A11FE240A128A11F52F831281
:100EF6000313560884000008CD00840A0008CE00BB
:100F0600840A0008CF00840A0008D0000430C30019
:100F16004308D6075508FF3A031D952F2030C30016
:100F26004308D5005008A7004F08A6004E08A500A4
:100F36004D08A4005508C3004308A80002300A1251
:100F46008A11FE240A128A11F52F831203135608FA
:100F560084000008C3004308C5000130C3004308ED
:100F6600D60745080A128A1107240A128A11F52F94
:100F76002530F02F831203135408253A0319BB2F8B
:100F8600673A03197A2F013A0319562E073A0319BD
:100F9600912E023A0319F52F153A0319A82F063A8E
:100FA6000319EA2E0D3A03192E2F3A3A0319542F34
:100FB600013A0319562E073A0319612E023A03190C
:100FC600F52F153A0319A82F063A0319CC2E0D3A18
:100FD6000319102FF52FF52F54080A128A11EB2347
:100FE6000A128A11013083120313C3004308D30780
:0A0FF600FA2D83010A128A11322C31
:02400E00BAFFF7
:00000001FF
