:060000000A128A11F02F24
:100EC800C034F934A434B034993492348234F834C8
:100ED8008034903488348334C634A13486348E34D4
:100EE8007E088A007F08820074270A128A1180000F
:100EF800840A04087D0603190034FF0A0319FE0A50
:100F0800782FF201F30171087302031D8D2F700809
:100F1800720203180800F401F50103307502E83085
:100F2800031974020318A52F0130F4070318F50AF2
:100F38000030F50703307502E83003197402031C0A
:100F4800982F0130F2070318F30A0030F307872FB0
:100F5800203084003230F6000408F7001030F80022
:100F68007608840083130008F900F60A77088400DD
:100F780079088000F70AF80BB42F8316031386014B
:100F8800880183120313B001B1013108803AFF00D0
:100F980080307F02031DD22F103030020318C52F76
:100FA80001308312031388003008203E8400831325
:100FB80000088600D030F0000730F1000A128A11CC
:100FC80085270A128A11013083120313B007031808
:100FD800B10A0030B107C92F83134230FD00073032
:100FE800FE006430FF00323084000A128A1178272C
:080FF80083010A128A11AC2FDB
:00000001FF
