:100000000A128A11FC2F00308A000408840A820731
:100010000034413444344334303420345634613471
:100020006C34753465343A342534343464342034D3
:060030000A340D34003417
:10072A00831203139F018030831603139F0008006E
:10073A00F000831203130C1E9E2B0C1270089900F2
:10074A00080070087104031908000130F002003033
:10075A00031CF103F102A62B83120313A300A201C7
:10076A00231CBB2B2008A1002108A2070310A00DFF
:10077A000310A30C2308031DB52B22080800F2005E
:10078A0072088400831300080319080072088400A1
:10079A00831300080A128A119D230A128A11013052
:1007AA00F1007108F207C52B803083160313870006
:1007BA002030980090308312031398002D08A3006C
:1007CA002C08A2002B08A1002A08A0000A128A11EC
:1007DA003E240800F5007508F40002300310F40DF9
:1007EA00FF3E031DF32B0310740D831203139F00A6
:1007FA001F140A30F0000030F1000A128A11A623F1
:10080A000A128A11831203131F151F190A2C1E08B4
:10081A00F300831603131E08F20008000A128A1155
:10082A0095230A128A11003083120313AD00003097
:10083A00AC002530AB008030AA000A128A11D923F5
:10084A000A128A1100300A128A11EF230A128A1137
:10085A00730883120313DA007208D9005A08C40015
:10086A005908C30001300A128A11E7250A128A11AF
:10087A00272C831203132308031D502C2208031D5F
:10088A00502C09302102031D4E2C60302002031D1A
:10089A004E2C031C8E2C2308031D8E2C01302202A1
:1008AA00031D5F2CC2302102031D5F2C0130200280
:1008BA00031D5F2C03188E2C2008A4002108A50014
:1008CA002208A6002308A70006300310A40DA50DD0
:1008DA00A60DA70DFF3E031D6A2C2708F300260864
:1008EA00F2002508F1002408F0000130F700313049
:1008FA00F6002D30F5000030F4000A128A11972410
:10090A000A128A117008FF3E83120313A8002808EE
:10091A00912C1F30A4002408A90029088316031368
:10092A00990008000030FC000030FB000030FA009B
:10093A000030F90073087204710470040319EC2C76
:10094A00FD01FD0AF31BB72C0130F8000310F00D6E
:10095A00F10DF20DF30DF80BAB2C0130F80078080D
:10096A00FD07A72C0130F8000310F90DFA0DFB0D55
:10097A00FC0DF80BB92C73087702031DCE2C7208F4
:10098A007602031DCE2C71087502031DCE2C700849
:10099A007402031CDF2C7008F4027108031C710F27
:1009AA00F5027208031C720FF6027308031C730F18
:1009BA00F702791401300310F30CF20CF10CF00C6D
:1009CA00FF3E031DE02C0130FD02031DB72C7C08FD
:1009DA00F3007B08F2007A08F1007908F0000800B9
:1009EA0083120313C100C2010230410603193C2DD0
:1009FA00402D2408A9002508AA002608AB002708CC
:100A0A00AC002808FF3EAD00AD0A0130AE00003050
:100A1A00AF00122D0310AE0DAF0DAD0B0F2D2E082A
:100A2A00B0002F08B1000030B11BFF30B200B30094
:100A3A003008A9053108AA053208AB053308AC0508
:100A4A002C082B042A04290403192D2D01302E2DDC
:100A5A000030B4003408C2004208303E0A128A113B
:100A6A009D230A128A11013083120313A80228084F
:100A7A0003190800FE2C2708260425042404031D54
:100A8A004B2D30300A128A119D230800831203135A
:100A9A00C201280842020318E32D27082604250468
:100AAA0024040319AD2D4108A9002908A00027082C
:100ABA00F7002608F6002508F5002408F400410886
:100ACA00AA00AB01AC01AD012D08F3002C08F2001D
:100ADA002B08F1002A08F0000A128A1197240A1238
:100AEA008A1170080A128A11B1230A128A11FF3A6E
:100AFA00013E831203132407AE004208353E8400E8
:100B0A002E08831380004108A900AA01AB01AC0199
:100B1A002C08F3002B08F2002A08F1002908F0003B
:100B2A002708F7002608F6002508F5002408F4002F
:100B3A000A128A1197240A128A117308831203135C
:100B4A00A7007208A6007108A5007008A400B92DB4
:100B5A00280A0319E32D0B3028020318E32D420853
:100B6A00353E8400831380010130A9002908C20799
:100B7A004E2D4208FF3E353E84000A3083130002A0
:100B8A000318CE2D4208FF3E353E84000008303E51
:100B9A00D42D4208FF3E353E84000008373EBF0090
:100BAA00003003180130C0003F080A128A119D2341
:100BBA000A128A11013083120313C202420803196E
:100BCA000800BE2D83120313C8004330C500450830
:100BDA00D8004808C5004508D500550884000A12FF
:100BEA008A1103200A128A11003A031908005508CB
:100BFA0084000A128A1103200A128A11C5004508C4
:100C0A00D60025305606031DEF2F0130C5004508D2
:100C1A00D507550884000A128A1103200A128A117C
:100C2A00C5004508D60030305602031C492E3A301A
:100C3A0056020318492ED70130305602031CBD2F25
:100C4A003A3056020318BD2F0A30C5004508A000E5
:100C5A0057080A128A11B1230A128A11831203133E
:100C6A005607D03EC6004608D7000130C5004508E1
:100C7A00D507550884000A128A1103200A128A111C
:100C8A00C5004508D600212EFF30C5004508D7000B
:100C9A00BD2F5808840083130008C5004508D600F4
:100CAA000230C5004508D807EF2F831203135808EE
:100CBA00840083130008CD00840A0008CE000230A5
:100CCA00C5004508D807CE1F752ECD09CE09CD0A15
:100CDA000319CE0A2D300A128A119D230A128A118B
:100CEA00831203134D08A4004E08A5000030A51B6B
:100CFA00FF30A600A7005708C5004508A8000A301B
:100D0A000A128A11F5240A128A11F52F8312031383
:100D1A005808840083130008C900840A0008CA001E
:100D2A00840A0008CB00840A0008CC000430C500FD
:100D3A004508D807CC1FB22EC909CA09CB09CC0964
:100D4A00C90A0319CA0A0319CB0A0319CC0A2D3096
:100D5A000A128A119D230A128A11831203134C085C
:100D6A00A7004B08A6004A08A5004908A40057088E
:100D7A00C5004508A8000A300A128A11F5240A1289
:100D8A008A11F52F8312031358088400831300086D
:100D9A00D300840A0008D4000230C5004508D807E9
:100DAA005308A4005408A500A601A7015708C500C6
:100DBA004508A8000A300A128A11F5240A128A1173
:100DCA00F52F831203135808840083130008CF00F9
:100DDA00840A0008D000840A0008D100840A0008A6
:100DEA00D2000430C5004508D8075208A7005108A8
:100DFA00A6005008A5004F08A4005708C5004508DA
:100E0A00A8000A300A128A11F5240A128A11F52F4B
:100E1A00831203135808840083130008D300840A3A
:100E2A000008D4000230C5004508D8075308A400BA
:100E3A005408A500A601A7015708C5004508A8003F
:100E4A0010300A128A11F5240A128A11F52F831218
:100E5A0003135808840083130008CF00840A00088B
:100E6A00D000840A0008D100840A0008D2000430A5
:100E7A00C5004508D8075208A7005108A60050081F
:100E8A00A5004F08A4005708C5004508A80010305F
:100E9A000A128A11F5240A128A11F52F83120313F2
:100EAA005808840083130008D300840A0008D40079
:100EBA000230C5004508D807570A031D682F1030AD
:100ECA00C5004508D7005308A4005408A500A60188
:100EDA00A7015708C5004508A80002300A128A115E
:100EEA00F5240A128A11F52F831203135808840075
:100EFA0083130008CF00840A0008D000840A00087F
:100F0A00D100840A0008D2000430C5004508D80779
:100F1A00570A031D942F2030C5004508D7005208F0
:100F2A00A7005108A6005008A5004F08A4005708BA
:100F3A00C5004508A80002300A128A11F5240A12CF
:100F4A008A11F52F831203135808840083130008AB
:100F5A00C5004508C7000130C5004508D80747083D
:100F6A000A128A11C4230A128A11F52F2530F02F8A
:100F7A00831203135608253A0319BB2F673A03193C
:100F8A00792F013A03194E2E073A03198B2E023A8A
:100F9A000319F52F153A0319A72F063A0319E62E56
:100FAA000D3A03192C2F3A3A0319532F013A031910
:100FBA004E2E073A03195A2E023A0319F52F153AFB
:100FCA000319A72F063A0319C72E0D3A03190D2F35
:100FDA00F52FF52F56080A128A119D230A128A1133
:100FEA00013083120313C5004508D507F22D83018A
:060FFA000A128A11132CFB
:02400E00BA3FB7
:00000001FF
