:100000000A128A11DD2F00308A000408840A820750
:1000100000344534783470346C346F347234653461
:1000200020344C3463346434203431347834313403
:04003000363400342E
:100390008034C0349034D03464008001840A040670
:1003A000031900340406CD297108700403190800EC
:1003B0000130F0020030031CF103F102D4290130B6
:1003C0000A128A11C1220A128A1100300A128A11F5
:1003D0001222080073087204031908002C30F00080
:1003E0000130F1000A128A11D4210A128A11013057
:1003F000F2020030031CF303F302EA290130FA0091
:100400007A0883120313C307C20134084302031896
:10041000C3014308443E8400831300080A128A1172
:10042000C1220800FB008312031334087B02031867
:100430000800C2017B08FA007A08C3007B08443E2A
:100440008400831300080A128A11C1220800FC00EC
:1004500083120313350842020318322A7C080A3A31
:10046000031D372A0A128A11FE210A128A117C08FA
:100470000A3A031908007C080A128A11F622013090
:10048000FB007B0883120313C207080083120313C7
:10049000A000200884000A128A1103200A128A117F
:1004A000003803190800200884000A128A1103206A
:1004B0000A128A110A128A1127220A128A1101309D
:1004C000FD007D0883120313A007492AF00183125F
:1004D000031337080A128A1104270A128A11F0013D
:1004E0008312031338080A128A1104270A128A1188
:1004F000F001F00A8312031339080A128A11042743
:100500000A128A110A30F0000030F1000A128A1132
:10051000D4210A128A11F0018312031339080A1236
:100520008A1104270800F001F00A83120313370828
:100530000A128A1104270A128A11F0018312031386
:1005400038080A128A1104270A128A11F001F00AE7
:100550008312031339080A128A1104270A128A1116
:100560000A30F0000030F1000A128A11D4210A1278
:100570008A11F0018312031339080A128A11042721
:100580000800F9000A128A11F8240A128A1183124B
:1005900003133608083A031DD42A79080A128A116F
:1005A00063230A128A11EC2A79080A128A112B2372
:1005B0000A128A110A128A1166220A128A1179080D
:1005C000F70003300310F70DFF3E031DE22A03106E
:1005D000770DF8007808F90079080A128A112B23A0
:1005E0000A128A110A128A1166220800F9000A12F8
:1005F0008A11F8240A128A11831203133608083A62
:10060000031D092B79080A128A1163230A128A1121
:10061000212B79080A128A112B230A128A110A1235
:100620008A1193220A128A117908F7000330031005
:10063000F70DFF3E031D172B0310770DF800780808
:10064000F90079080A128A112B230A128A110A1258
:100650008A1193220800F6000030761A0130F50066
:100660007508F000831203133E080A128A1104274A
:100670000A128A110030F61A0130F5007508F000F0
:10068000831203133F080A128A1104270A128A11DF
:100690000030761B0130F5007508F000831203135B
:1006A00040080A128A1104270A128A110030F61B28
:1006B0000130F5007508F0008312031341080A1297
:1006C0008A1104270800F600003076180130F50082
:1006D0007508F000831203133A080A128A110427DE
:1006E0000A128A110030F6180130F5007508F00082
:1006F000831203133B080A128A1104270A128A1173
:10070000003076190130F5007508F00083120313EC
:100710003C080A128A1104270A128A110030F619BD
:100720000130F5007508F000831203133D080A122A
:100730008A1104270800093083120313AA002A082B
:10074000A0000A30AB002B08A100FF30AC002C0841
:10075000A200FF30AD002D08A300FF30AE002E0830
:10076000A400FF30AF002F08A5000C30B000300807
:10077000A6000D30B1003108A7000E30B2003208DB
:10078000A8000F30B3003308A90008300A128A11FC
:1007900085250A128A11103083120313AA002A0831
:1007A000FC0001300A128A112D240A128A1101302C
:1007B0000A128A1146220A128A11DD2B30300A12DF
:1007C0008A112B230A128A110A128A1166220A122E
:1007D0008A116430F2000030F3000A128A11EA2113
:1007E0000A128A1130300A128A112B230A128A1136
:1007F0000A128A1166220A128A11C830F0000030EB
:10080000F1000A128A11D4210A128A1130300A1218
:100810008A112B230A128A110A128A1166220A12DD
:100820008A11C830F0000030F1000A128A11D42178
:100830000A128A1120300A128A112B230A128A11F5
:100840000A128A1166220A128A11C830F00000309A
:10085000F1000A128A11D4210800FD007D08013A36
:10086000031D3F2C7C0883120313A0000310200CEF
:10087000A1002108FC000230A0002008FD007C0837
:1008800083120313A0002008B5007D08A0002008F3
:10089000B40003307D02031C592C7C080F39903EB4
:1008A000A0002008C6007C080F39D03EA000200818
:1008B000C7006430F2000030F3000A128A11EA2106
:1008C0000A128A11831203133608083A031D6A2C90
:1008D0003830762C831203133608043A031D7B2C20
:1008E0000A128A11DE230A128A1128300A128A118A
:1008F000C1220A128A110E300A128A11C1220A126A
:100900008A110A128A11DF210800F400F301740829
:10091000F00003300310F00CFF3E031D8A2C70081A
:10092000F1007108F20074080739F0007008F40053
:10093000E52C0130F000740A9F2C0310F00DFF3EEF
:10094000031D9D2C7008831203130505DE2C013056
:10095000F000740AAD2C0310F00DFF3E031DAB2C0C
:100960007008831203130605DE2C0130F000740AB0
:10097000BB2C0310F00DFF3E031DB92C7008831231
:1009800003130705DE2C0130F000740AC92C031094
:10099000F00DFF3E031DC72C7008831203130805DA
:1009A000DE2C0130F000740AD72C0310F00DFF3E4E
:1009B000031DD52C70088312031309050030031D95
:1009C0000130F1007108F300F62C7208003A0319A7
:1009D000992C013A0319A72C033A0319B52C013AB3
:1009E0000319C32C073A0319D12CF62C73080800FD
:1009F000831203133808FF3A03197D2DF001F00A22
:100A000041080A128A112B260A128A11F001831258
:100A1000031337080A128A1104270A128A11F001F7
:100A2000F00A8312031338080A128A1104270A12E3
:100A30008A11F0018312031339080A128A1104275C
:100A40000A128A110A30F0000030F1000A128A11ED
:100A5000D4210A128A11F001F00A83120313390813
:100A60000A128A1104270A128A110A30F000003093
:100A7000F1000A128A11D4210A128A118312031377
:100A800041080A128A1185240A128A11F500750894
:100A9000F600831203133608043A031D722DF00189
:100AA00039080A128A1104270A128A110A30F00042
:100AB0000030F1000A128A11D4210A128A11F001C1
:100AC000F00A8312031339080A128A1104270A1242
:100AD0008A110A30F0000030F1000A128A11D42184
:100AE0000A128A11F608031D192DF001831203134F
:100AF00041080A128A112B2608000130F20000304A
:100B0000F3000A128A11EA210800F6007608F500BF
:100B1000750883120313B7002008F5007508B800A4
:100B20002108F5007508B9002208F5007508BA001B
:100B30002308F5007508BB002408F5007508BC0003
:100B40002508F5007508BD002608F5007508BE00EB
:100B50002708F5007508BF002808F5007508C000D3
:100B60002908F5007508C1002208FF3A0319C42DB1
:100B70002308FF3A0319C42D2408FF3A0319C42D92
:100B80002508FF3A031DC92D0430F5007508B6008D
:100B9000EF2D0830F5007508B600F00122080A12A2
:100BA0008A112B260A128A11F001831203132308DB
:100BB0000A128A112B260A128A11F00183120313DA
:100BC00024080A128A112B260A128A11F0018312B4
:100BD000031325080A128A112B260A128A11F00122
:100BE00076080A128A112B260A128A11F001831242
:100BF000031320080A128A112B260A128A11F00107
:100C00008312031321080A128A112B260A128A1151
:100C1000F0018312031326080A128A112B260A12E6
:100C20008A11F0018312031327080A128A112B2656
:100C30000A128A11F0018312031328080A128A117A
:100C40002B260A128A11F0018312031329080A12B3
:100C50008A112B260800F4007408F10003300310F9
:100C6000F10CFF3E031D2F2E7108F2007208F300F5
:100C700074080739F1007108F400F22E70080319A6
:100C8000512E0130F100740A472E0310F10DFF3E82
:100C9000031D452E7108F2007208831603138504A4
:100CA00008000130F100740A572E0310F10DFF3EC9
:100CB000031D552E7108FF3AF200720883160313C4
:100CC0008505080070080319752E0130F100740ABB
:100CD0006B2E0310F10DFF3E031D692E7108F2000B
:100CE000720883160313860408000130F100740AA9
:100CF0007B2E0310F10DFF3E031D792E7108FF3A84
:100D0000F2007208831603138605080070080319A1
:100D1000992E0130F100740A8F2E0310F10DFF3E61
:100D2000031D8D2E7108F2007208831603138704C9
:100D300008000130F100740A9F2E0310F10DFF3EF0
:100D4000031D9D2E7108FF3AF200720883160313EB
:100D50008705080070080319BD2E0130F100740AE0
:100D6000B32E0310F10DFF3E031DB12E7108F200EA
:100D7000720883160313880408000130F100740A16
:100D8000C32E0310F10DFF3E031DC12E7108FF3A63
:100D9000F20072088316031388050800700803190F
:100DA000E12E0130F100740AD72E0310F10DFF3E41
:100DB000031DD52E7108F2007208831603138904EF
:100DC00008000130F100740AE72E0310F10DFF3E18
:100DD000031DE52E7108FF3AF20072088316031313
:100DE000890508007308003A03193E2E013A0319D9
:100DF000622E033A0319862E013A0319AA2E073AE6
:100E00000319CE2E032F0800F4007408F1000330FC
:100E10000310F10CFF3E031D082F7108F200720849
:100E2000F30074080739F1007108F400CB2F700843
:100E300003192A2F0130F100740A202F0310F10D3D
:100E4000FF3E031D1E2F7108F20072088312031368
:100E5000850408000130F100740A302F0310F10DF1
:100E6000FF3E031D2E2F7108FF3AF2007208831215
:100E7000031385050800700803194E2F0130F10097
:100E8000740A442F0310F10DFF3E031D422F710819
:100E9000F200720883120313860408000130F10087
:100EA000740A542F0310F10DFF3E031D522F7108D9
:100EB000FF3AF200720883120313860508007008D7
:100EC0000319722F0130F100740A682F0310F10D1D
:100ED000FF3E031D662F7108F20072088312031390
:100EE000870408000130F100740A782F0310F10D17
:100EF000FF3E031D762F7108FF3AF200720883123D
:100F000003138705080070080319962F0130F100BC
:100F1000740A8C2F0310F10DFF3E031D8A2F7108F8
:100F2000F200720883120313880408000130F100F4
:100F3000740A9C2F0310F10DFF3E031D9A2F7108B8
:100F4000FF3AF20072088312031388050800700844
:100F50000319BA2F0130F100740AB02F0310F10DFC
:100F6000FF3E031DAE2F7108F200720883120313B7
:100F7000890408000130F100740AC02F0310F10D3C
:100F8000FF3E031DBE2F7108FF3AF2007208831264
:100F90000313890508007308003A0319172F013A53
:100FA00003193B2F033A03195F2F013A0319832FCB
:100FB000073A0319A72FDC2F08008313343084006D
:100FC00044300A128A11CC210A128A110A128A119B
:100FD000C8210A128A11C4000A128A11C9210A12F0
:100FE0008A11C5000A128A11CA210A128A11C60082
:100FF0000A128A11CB21C70083010A128A119B2B86
:02400E00BAFFF7
:00000001FF
