:100000000A128A11FC2F00308A000408840A820731
:100010000034413444344334303420345634613471
:100020006C34753465343A342534343464342034D3
:060030000A340D34003417
:10071E00831203139F018030831603139F0008007A
:10072E00F000831203130C1E982B0C127008990004
:10073E00080071087004031908000130F00200303F
:10074E00031CF103F102A02B83120313A300A201D9
:10075E00231CB52B2008A1002108A2070310A00D11
:10076E000310A30CA308031DAF2B22080800F200F0
:10077E00720884008313800803190800720884002D
:10078E00831300080A128A1197230A128A11013064
:10079E00F1007108F207BF2B803083160313870018
:1007AE002030980090308312031398002D08A30078
:1007BE002C08A2002B08A1002A08A0000A128A11F8
:1007CE003E240800F5007508F40002300310F40D05
:1007DE00FF3E031DED2B0310740D831203139F00B8
:1007EE001F140A30F0000030F1000A128A11A02303
:1007FE000A128A11831203131F151F19042C1E08C7
:10080E00F301F307831603131E08F201F207080023
:10081E000A128A118F230A128A11003083120313CF
:10082E00AD000030AC002530AB008030AA000A12BB
:10083E008A11D3230A128A1100300A128A11E9236F
:10084E000A128A11730883120313DA01DA07720887
:10085E00D901D9075A08C401C4075908C301C307EF
:10086E0001300A128A11E5250A128A11232C003052
:10087E00831203132302031D4E2C00302202031D8C
:10088E004E2C09302102031D4E2C60302002031C19
:10089E008D2C00302302031D5E2C01302202031D1D
:1008AE005E2CC2302102031D5E2C01302002031883
:1008BE008D2C2008A4002108A5002208A6002308DC
:1008CE00A70006300310A40DA50DA60DA70DFF3E23
:1008DE00031D692C2708F3002608F2002508F100F5
:1008EE002408F0000130F7003130F6002D30F5000D
:1008FE000030F4000A128A1196240A128A11700826
:10090E00FF3E83120313A8002808902C1F30A4006A
:10091E002408A90029088316031399000800003043
:10092E00FC000030FB000030FA000030F9007308C4
:10093E007204710470040319EB2CFD01FD0AF31B04
:10094E00B62C0130F8000310F00DF10DF20DF30D81
:10095E00F80BAA2C0130F8007808FD07A62C013000
:10096E00F8000310F90DFA0DFB0DFC0DF80BB82C69
:10097E0073087702031DCD2C72087602031DCD2C51
:10098E0071087502031DCD2C70087402031CDE2C39
:10099E007008F4027108031C710FF5027208031C33
:1009AE00720FF6027308031C730FF70279140130ED
:1009BE000310F30CF20CF10CF00CFF3E031DDF2CB8
:1009CE000130FD02031DB62C7C08F3007B08F200FB
:1009DE007A08F1007908F000080083120313C100B1
:1009EE00C2014108023A0319392D3D2D2408A900F0
:1009FE002508AA002608AB002708AC002808FF3EF1
:100A0E00AD00AD0A0130AE000030AF00112D031065
:100A1E00AE0DAF0DAD0B0E2D2E08B0002F08B10090
:100A2E000030B11BFF30B200B3003008A905310809
:100A3E00AA053208AB053308AC052C082B042A0492
:100A4E0029040030031D0130B4003408C2004208EE
:100A5E00303E0A128A1197230A128A11013083122C
:100A6E000313A802A80803190800FD2C2708260462
:100A7E0025042404031D482D30300A128A119723B1
:100A8E00080083120313C201280842020318E12D45
:100A9E0027082604250424040319AA2D4108A900B9
:100AAE002908A0002708F7002608F6002508F500FB
:100ABE002408F4004108AA00AB01AC01AD012D08D9
:100ACE00F3002C08F2002B08F1002A08F0000A129D
:100ADE008A1196240A128A1170080A128A11AB23FF
:100AEE000A128A11FF3A013E831203132407AE0045
:100AFE004208353E84002E08831380004108A90069
:100B0E00AA01AB01AC012C08F3002B08F2002A0855
:100B1E00F1002908F0002708F7002608F60025083E
:100B2E00F5002408F4000A128A1196240A128A117A
:100B3E00730883120313A7007208A6007108A5009C
:100B4E007008A400B72D2808FF3A0319E12D0B30C9
:100B5E0028020318E12D4208353E840083138001DC
:100B6E000130A9002908C2074B2D4208FF3E353E31
:100B7E0084000A30831300020318CC2D4208FF3E76
:100B8E00353E84000008303ED22D4208FF3E353EF1
:100B9E0084000008373EBF00003003180130C0004B
:100BAE003F080A128A1197230A128A110130831202
:100BBE000313C202C20803190800BC2D83120313CB
:100BCE00C8004330C5004508D8004808C500450890
:100BDE00D500550884000A128A1103200A128A11C0
:100BEE00003803190800550884000A128A110320E0
:100BFE000A128A11C5004508D6005608253A031D6B
:100C0E00EF2F0130C5004508D507550884000A129C
:100C1E008A1103200A128A11C5004508D600303009
:100C2E005602031C472E3A3056020318472ED701A0
:100C3E0030305602031CBD2F3A3056020318BD2F1A
:100C4E000A30C5004508A00057080A128A11AB23C6
:100C5E000A128A11831203135607D03EC6004608A5
:100C6E00D7000130C5004508D507550884000A1283
:100C7E008A1103200A128A11C5004508D6001F2EBC
:100C8E00FF30C5004508D700BD2F580884008313D8
:100C9E000008C5004508D6000230C5004508D80733
:100CAE00EF2F831203135808840083130008CD001E
:100CBE00840A0008CE000230C5004508D807CE1FB2
:100CCE00732ECD09CE09CD0A0319CE0A2D300A1284
:100CDE008A1197230A128A11831203134D08A40056
:100CEE004E08A5000030A51BFF30A600A700570830
:100CFE00C5004508A8000A300A128A11F4240A1207
:100D0E008A11F52F831203135808840083130008E9
:100D1E00C900840A0008CA00840A0008CB00840AAD
:100D2E000008CC000430C5004508D807CC1FB02EF3
:100D3E00C909CA09CB09CC09C90A0319CA0A031978
:100D4E00CB0A0319CC0A2D300A128A1197230A12E4
:100D5E008A11831203134C08A7004B08A6004A08F9
:100D6E00A5004908A4005708C5004508A8000A3088
:100D7E000A128A11F4240A128A11F52F8312031310
:100D8E005808840083130008D300840A0008D40096
:100D9E000230C5004508D8075308A4005408A50022
:100DAE00A601A7015708C5004508A8000A300A1277
:100DBE008A11F4240A128A11F52F8312031358088C
:100DCE00840083130008CF00840A0008D000840A30
:100DDE000008D100840A0008D2000430C50045087E
:100DEE00D8075208A7005108A6005008A5004F08C2
:100DFE00A4005708C5004508A8000A300A128A1137
:100E0E00F4240A128A11F52F831203135808840052
:100E1E0083130008D300840A0008D4000230C500F2
:100E2E004508D8075308A4005408A500A601A70139
:100E3E005708C5004508A80010300A128A11F4247C
:100E4E000A128A11F52F8312031358088400831394
:100E5E000008CF00840A0008D000840A0008D100E0
:100E6E00840A0008D2000430C5004508D80752088D
:100E7E00A7005108A6005008A5004F08A400570867
:100E8E00C5004508A80010300A128A11F4240A126F
:100E9E008A11F52F83120313580884008313000858
:100EAE00D300840A0008D4000230C5004508D807D4
:100EBE005708FF3A031D672F1030C5004508D700AD
:100ECE005308A4005408A500A601A7015708C500A1
:100EDE004508A80002300A128A11F4240A128A1157
:100EEE00F52F831203135808840083130008CF00D4
:100EFE00840A0008D000840A0008D100840A000881
:100F0E00D2000430C5004508D8075708FF3A031D24
:100F1E00942F2030C5004508D7005208A70051086D
:100F2E00A6005008A5004F08A4005708C5004508A4
:100F3E00A80002300A128A11F4240A128A11F52F1F
:100F4E00831203135808840083130008C500450854
:100F5E00C7000130C5004508D80747080A128A1194
:100F6E00BE230A128A11F52F2530F02F8312031398
:100F7E005608253A0319BB2F673A0319782F013A01
:100F8E0003194C2E073A0319892E023A0319F52F2D
:100F9E00153A0319A72F063A0319E42E0D3A031931
:100FAE002A2F3A3A0319512F013A03194C2E073AB8
:100FBE000319582E023A0319F52F153A0319A72FC4
:100FCE00063A0319C52E0D3A03190B2FF52FF52FDF
:100FDE0056080A128A1197230A128A1101308312B7
:100FEE000313C5004508D507F02D83010A128A1197
:020FFE000F2CB6
:02400E00BAFFF7
:00000001FF
